{
  "contractName": "EthunesMarketplace",
  "abi": [
    {
      "anonymous": false,
      "inputs": [
        {
          "indexed": true,
          "internalType": "uint256",
          "name": "LicenseId",
          "type": "uint256"
        },
        {
          "indexed": true,
          "internalType": "address",
          "name": "publisher",
          "type": "address"
        },
        {
          "indexed": false,
          "internalType": "string",
          "name": "uri",
          "type": "string"
        },
        {
          "indexed": false,
          "internalType": "uint256",
          "name": "price",
          "type": "uint256"
        }
      ],
      "name": "EthunesLicenseAdded",
      "type": "event"
    },
    {
      "anonymous": false,
      "inputs": [
        {
          "indexed": true,
          "internalType": "uint256",
          "name": "licenseId",
          "type": "uint256"
        },
        {
          "indexed": true,
          "internalType": "address",
          "name": "publisher",
          "type": "address"
        },
        {
          "indexed": true,
          "internalType": "address",
          "name": "holder",
          "type": "address"
        },
        {
          "indexed": false,
          "internalType": "uint256",
          "name": "price",
          "type": "uint256"
        }
      ],
      "name": "EthunesLicensePurchased",
      "type": "event"
    },
    {
      "anonymous": false,
      "inputs": [
        {
          "indexed": true,
          "internalType": "uint256",
          "name": "songId",
          "type": "uint256"
        },
        {
          "indexed": true,
          "internalType": "address",
          "name": "publisher",
          "type": "address"
        },
        {
          "indexed": false,
          "internalType": "string",
          "name": "uri",
          "type": "string"
        }
      ],
      "name": "EthunesSongPublished",
      "type": "event"
    },
    {
      "anonymous": false,
      "inputs": [
        {
          "indexed": true,
          "internalType": "bytes32",
          "name": "role",
          "type": "bytes32"
        },
        {
          "indexed": true,
          "internalType": "bytes32",
          "name": "previousAdminRole",
          "type": "bytes32"
        },
        {
          "indexed": true,
          "internalType": "bytes32",
          "name": "newAdminRole",
          "type": "bytes32"
        }
      ],
      "name": "RoleAdminChanged",
      "type": "event"
    },
    {
      "anonymous": false,
      "inputs": [
        {
          "indexed": true,
          "internalType": "bytes32",
          "name": "role",
          "type": "bytes32"
        },
        {
          "indexed": true,
          "internalType": "address",
          "name": "account",
          "type": "address"
        },
        {
          "indexed": true,
          "internalType": "address",
          "name": "sender",
          "type": "address"
        }
      ],
      "name": "RoleGranted",
      "type": "event"
    },
    {
      "anonymous": false,
      "inputs": [
        {
          "indexed": true,
          "internalType": "bytes32",
          "name": "role",
          "type": "bytes32"
        },
        {
          "indexed": true,
          "internalType": "address",
          "name": "account",
          "type": "address"
        },
        {
          "indexed": true,
          "internalType": "address",
          "name": "sender",
          "type": "address"
        }
      ],
      "name": "RoleRevoked",
      "type": "event"
    },
    {
      "inputs": [],
      "name": "DEFAULT_ADMIN_ROLE",
      "outputs": [
        {
          "internalType": "bytes32",
          "name": "",
          "type": "bytes32"
        }
      ],
      "stateMutability": "view",
      "type": "function"
    },
    {
      "inputs": [],
      "name": "ONE_HUNDRED_PERCENTAGE",
      "outputs": [
        {
          "internalType": "uint256",
          "name": "",
          "type": "uint256"
        }
      ],
      "stateMutability": "view",
      "type": "function"
    },
    {
      "inputs": [
        {
          "internalType": "bytes32",
          "name": "role",
          "type": "bytes32"
        }
      ],
      "name": "getRoleAdmin",
      "outputs": [
        {
          "internalType": "bytes32",
          "name": "",
          "type": "bytes32"
        }
      ],
      "stateMutability": "view",
      "type": "function"
    },
    {
      "inputs": [
        {
          "internalType": "bytes32",
          "name": "role",
          "type": "bytes32"
        },
        {
          "internalType": "address",
          "name": "account",
          "type": "address"
        }
      ],
      "name": "grantRole",
      "outputs": [],
      "stateMutability": "nonpayable",
      "type": "function"
    },
    {
      "inputs": [
        {
          "internalType": "bytes32",
          "name": "role",
          "type": "bytes32"
        },
        {
          "internalType": "address",
          "name": "account",
          "type": "address"
        }
      ],
      "name": "hasRole",
      "outputs": [
        {
          "internalType": "bool",
          "name": "",
          "type": "bool"
        }
      ],
      "stateMutability": "view",
      "type": "function"
    },
    {
      "inputs": [],
      "name": "publisherRoyaltyPercentage",
      "outputs": [
        {
          "internalType": "uint256",
          "name": "",
          "type": "uint256"
        }
      ],
      "stateMutability": "view",
      "type": "function"
    },
    {
      "inputs": [
        {
          "internalType": "bytes32",
          "name": "role",
          "type": "bytes32"
        },
        {
          "internalType": "address",
          "name": "account",
          "type": "address"
        }
      ],
      "name": "renounceRole",
      "outputs": [],
      "stateMutability": "nonpayable",
      "type": "function"
    },
    {
      "inputs": [
        {
          "internalType": "bytes32",
          "name": "role",
          "type": "bytes32"
        },
        {
          "internalType": "address",
          "name": "account",
          "type": "address"
        }
      ],
      "name": "revokeRole",
      "outputs": [],
      "stateMutability": "nonpayable",
      "type": "function"
    },
    {
      "inputs": [
        {
          "internalType": "bytes4",
          "name": "interfaceId",
          "type": "bytes4"
        }
      ],
      "name": "supportsInterface",
      "outputs": [
        {
          "internalType": "bool",
          "name": "",
          "type": "bool"
        }
      ],
      "stateMutability": "view",
      "type": "function"
    }
  ],
  "bytecode": "0x60806040526101f460025534801561001657600080fd5b50600180556108618061002a6000396000f3fe608060405234801561001057600080fd5b50600436106100a35760003560e01c806336568abe11610076578063a1a7c89c1161005b578063a1a7c89c14610169578063a217fddf14610172578063d547741f1461017a57600080fd5b806336568abe1461011f57806391d148541461013257600080fd5b806301ffc9a7146100a85780632372be9a146100d0578063248a9ca3146100e75780632f2ff15d1461010a575b600080fd5b6100bb6100b63660046106bb565b61018d565b60405190151581526020015b60405180910390f35b6100d960025481565b6040519081526020016100c7565b6100d96100f5366004610669565b60009081526020819052604090206001015490565b61011d610118366004610681565b6101f6565b005b61011d61012d366004610681565b610221565b6100bb610140366004610681565b6000918252602082815260408084206001600160a01b0393909316845291905290205460ff1690565b6100d961271081565b6100d9600081565b61011d610188366004610681565b6102b2565b60006001600160e01b031982167f7965db0b0000000000000000000000000000000000000000000000000000000014806101f057507f01ffc9a7000000000000000000000000000000000000000000000000000000006001600160e01b03198316145b92915050565b60008281526020819052604090206001015461021281336102d8565b61021c8383610356565b505050565b6001600160a01b03811633146102a45760405162461bcd60e51b815260206004820152602f60248201527f416363657373436f6e74726f6c3a2063616e206f6e6c792072656e6f756e636560448201527f20726f6c657320666f722073656c66000000000000000000000000000000000060648201526084015b60405180910390fd5b6102ae82826103f4565b5050565b6000828152602081905260409020600101546102ce81336102d8565b61021c83836103f4565b6000828152602081815260408083206001600160a01b038516845290915290205460ff166102ae57610314816001600160a01b03166014610473565b61031f836020610473565b6040516020016103309291906106e3565b60408051601f198184030181529082905262461bcd60e51b825261029b91600401610764565b6000828152602081815260408083206001600160a01b038516845290915290205460ff166102ae576000828152602081815260408083206001600160a01b03851684529091529020805460ff191660011790556103b03390565b6001600160a01b0316816001600160a01b0316837f2f8788117e7eff1d82e926ec794901d17c78024a50270940304540a733656f0d60405160405180910390a45050565b6000828152602081815260408083206001600160a01b038516845290915290205460ff16156102ae576000828152602081815260408083206001600160a01b0385168085529252808320805460ff1916905551339285917ff6391f5c32d9c69d2a47ea670b442974b53935d1edc7fd64eb21e047a839171b9190a45050565b606060006104828360026107af565b61048d906002610797565b67ffffffffffffffff8111156104b357634e487b7160e01b600052604160045260246000fd5b6040519080825280601f01601f1916602001820160405280156104dd576020820181803683370190505b509050600360fc1b8160008151811061050657634e487b7160e01b600052603260045260246000fd5b60200101906001600160f81b031916908160001a905350600f60fb1b8160018151811061054357634e487b7160e01b600052603260045260246000fd5b60200101906001600160f81b031916908160001a90535060006105678460026107af565b610572906001610797565b90505b6001811115610613577f303132333435363738396162636465660000000000000000000000000000000085600f16601081106105c157634e487b7160e01b600052603260045260246000fd5b1a60f81b8282815181106105e557634e487b7160e01b600052603260045260246000fd5b60200101906001600160f81b031916908160001a90535060049490941c9361060c816107fe565b9050610575565b5083156106625760405162461bcd60e51b815260206004820181905260248201527f537472696e67733a20686578206c656e67746820696e73756666696369656e74604482015260640161029b565b9392505050565b60006020828403121561067a578081fd5b5035919050565b60008060408385031215610693578081fd5b8235915060208301356001600160a01b03811681146106b0578182fd5b809150509250929050565b6000602082840312156106cc578081fd5b81356001600160e01b031981168114610662578182fd5b7f416363657373436f6e74726f6c3a206163636f756e742000000000000000000081526000835161071b8160178501602088016107ce565b7f206973206d697373696e6720726f6c652000000000000000000000000000000060179184019182015283516107588160288401602088016107ce565b01602801949350505050565b60208152600082518060208401526107838160408501602087016107ce565b601f01601f19169190910160400192915050565b600082198211156107aa576107aa610815565b500190565b60008160001904831182151516156107c9576107c9610815565b500290565b60005b838110156107e95781810151838201526020016107d1565b838111156107f8576000848401525b50505050565b60008161080d5761080d610815565b506000190190565b634e487b7160e01b600052601160045260246000fdfea26469706673582212206af533178150609b65113ede9c3d322fa15a2c2a35ca25a1db038026b3e74f6864736f6c63430008040033",
  "immutableReferences": {},
  "source": "// SPDX-License-Identifier: MIT\npragma solidity ^0.8.0;\n\nimport \"@openzeppelin/contracts/security/ReentrancyGuard.sol\";\nimport \"@openzeppelin/contracts/access/AccessControl.sol\";\n\ncontract EthunesMarketplace is AccessControl, ReentrancyGuard {\n    event EthunesLicensePurchased(\n        uint256 indexed licenseId,\n        address indexed publisher,\n        address indexed holder,\n        uint256 price\n    );\n\n    event EthunesLicenseAdded(\n        uint256 indexed LicenseId,\n        // uint256 indexed songId,\n        address indexed publisher,\n        string uri,\n        uint256 price\n    );\n\n    event EthunesSongPublished(\n        uint256 indexed songId,\n        address indexed publisher,\n        string uri\n    );\n\n    uint256 public constant ONE_HUNDRED_PERCENTAGE = 10000;\n    // 5.00%\n    uint256 public publisherRoyaltyPercentage = 500;\n\n\n    struct LicenseListing {\n        address payable originalPublisher;\n        uint256 price;\n    }\n\n    \n}",
  "sourcePath": "/Users/mehradkavian/Dropbox/ethunes/ethunes-contracts/contracts/EthunesMarketplace.sol",
  "compiler": {
    "name": "solc",
    "version": "0.8.4+commit.c7e474f2.Emscripten.clang"
  },
  "schemaVersion": "3.3.4",
  "updatedAt": "2021-05-30T03:03:25.942Z",
  "devdoc": {
    "kind": "dev",
    "methods": {
      "getRoleAdmin(bytes32)": {
        "details": "Returns the admin role that controls `role`. See {grantRole} and {revokeRole}. To change a role's admin, use {_setRoleAdmin}."
      },
      "grantRole(bytes32,address)": {
        "details": "Grants `role` to `account`. If `account` had not been already granted `role`, emits a {RoleGranted} event. Requirements: - the caller must have ``role``'s admin role."
      },
      "hasRole(bytes32,address)": {
        "details": "Returns `true` if `account` has been granted `role`."
      },
      "renounceRole(bytes32,address)": {
        "details": "Revokes `role` from the calling account. Roles are often managed via {grantRole} and {revokeRole}: this function's purpose is to provide a mechanism for accounts to lose their privileges if they are compromised (such as when a trusted device is misplaced). If the calling account had been granted `role`, emits a {RoleRevoked} event. Requirements: - the caller must be `account`."
      },
      "revokeRole(bytes32,address)": {
        "details": "Revokes `role` from `account`. If `account` had been granted `role`, emits a {RoleRevoked} event. Requirements: - the caller must have ``role``'s admin role."
      },
      "supportsInterface(bytes4)": {
        "details": "See {IERC165-supportsInterface}."
      }
    },
    "version": 1
  },
  "userdoc": {
    "kind": "user",
    "methods": {},
    "version": 1
  }
}