{
  "contractName": "EthunesLicenses",
  "abi": [
    {
      "inputs": [
        {
          "internalType": "contract EthunesSongs",
          "name": "_ethunesSongs",
          "type": "address"
        },
        {
          "internalType": "contract EthunesAccessControl",
          "name": "_ethunesAccessControl",
          "type": "address"
        }
      ],
      "stateMutability": "nonpayable",
      "type": "constructor"
    },
    {
      "anonymous": false,
      "inputs": [
        {
          "indexed": true,
          "internalType": "address",
          "name": "account",
          "type": "address"
        },
        {
          "indexed": true,
          "internalType": "address",
          "name": "operator",
          "type": "address"
        },
        {
          "indexed": false,
          "internalType": "bool",
          "name": "approved",
          "type": "bool"
        }
      ],
      "name": "ApprovalForAll",
      "type": "event"
    },
    {
      "anonymous": false,
      "inputs": [
        {
          "indexed": true,
          "internalType": "uint256",
          "name": "categoryId",
          "type": "uint256"
        },
        {
          "indexed": false,
          "internalType": "bytes",
          "name": "categoryURI",
          "type": "bytes"
        }
      ],
      "name": "LicenseCategoryUpdated",
      "type": "event"
    },
    {
      "anonymous": false,
      "inputs": [
        {
          "indexed": false,
          "internalType": "uint256",
          "name": "tokenId",
          "type": "uint256"
        },
        {
          "indexed": false,
          "internalType": "uint256",
          "name": "songId",
          "type": "uint256"
        },
        {
          "indexed": true,
          "internalType": "address",
          "name": "issuer",
          "type": "address"
        },
        {
          "indexed": true,
          "internalType": "address",
          "name": "licensee",
          "type": "address"
        }
      ],
      "name": "LicenseIssued",
      "type": "event"
    },
    {
      "anonymous": false,
      "inputs": [
        {
          "indexed": true,
          "internalType": "address",
          "name": "operator",
          "type": "address"
        },
        {
          "indexed": true,
          "internalType": "address",
          "name": "from",
          "type": "address"
        },
        {
          "indexed": true,
          "internalType": "address",
          "name": "to",
          "type": "address"
        },
        {
          "indexed": false,
          "internalType": "uint256[]",
          "name": "ids",
          "type": "uint256[]"
        },
        {
          "indexed": false,
          "internalType": "uint256[]",
          "name": "values",
          "type": "uint256[]"
        }
      ],
      "name": "TransferBatch",
      "type": "event"
    },
    {
      "anonymous": false,
      "inputs": [
        {
          "indexed": true,
          "internalType": "address",
          "name": "operator",
          "type": "address"
        },
        {
          "indexed": true,
          "internalType": "address",
          "name": "from",
          "type": "address"
        },
        {
          "indexed": true,
          "internalType": "address",
          "name": "to",
          "type": "address"
        },
        {
          "indexed": false,
          "internalType": "uint256",
          "name": "id",
          "type": "uint256"
        },
        {
          "indexed": false,
          "internalType": "uint256",
          "name": "value",
          "type": "uint256"
        }
      ],
      "name": "TransferSingle",
      "type": "event"
    },
    {
      "anonymous": false,
      "inputs": [
        {
          "indexed": false,
          "internalType": "string",
          "name": "value",
          "type": "string"
        },
        {
          "indexed": true,
          "internalType": "uint256",
          "name": "id",
          "type": "uint256"
        }
      ],
      "name": "URI",
      "type": "event"
    },
    {
      "inputs": [
        {
          "internalType": "address",
          "name": "account",
          "type": "address"
        },
        {
          "internalType": "uint256",
          "name": "id",
          "type": "uint256"
        }
      ],
      "name": "balanceOf",
      "outputs": [
        {
          "internalType": "uint256",
          "name": "",
          "type": "uint256"
        }
      ],
      "stateMutability": "view",
      "type": "function",
      "constant": true
    },
    {
      "inputs": [
        {
          "internalType": "address[]",
          "name": "accounts",
          "type": "address[]"
        },
        {
          "internalType": "uint256[]",
          "name": "ids",
          "type": "uint256[]"
        }
      ],
      "name": "balanceOfBatch",
      "outputs": [
        {
          "internalType": "uint256[]",
          "name": "",
          "type": "uint256[]"
        }
      ],
      "stateMutability": "view",
      "type": "function",
      "constant": true
    },
    {
      "inputs": [],
      "name": "ethunesAccessControl",
      "outputs": [
        {
          "internalType": "contract EthunesAccessControl",
          "name": "",
          "type": "address"
        }
      ],
      "stateMutability": "view",
      "type": "function",
      "constant": true
    },
    {
      "inputs": [],
      "name": "ethunesSongs",
      "outputs": [
        {
          "internalType": "contract EthunesSongs",
          "name": "",
          "type": "address"
        }
      ],
      "stateMutability": "view",
      "type": "function",
      "constant": true
    },
    {
      "inputs": [
        {
          "internalType": "address",
          "name": "account",
          "type": "address"
        },
        {
          "internalType": "address",
          "name": "operator",
          "type": "address"
        }
      ],
      "name": "isApprovedForAll",
      "outputs": [
        {
          "internalType": "bool",
          "name": "",
          "type": "bool"
        }
      ],
      "stateMutability": "view",
      "type": "function",
      "constant": true
    },
    {
      "inputs": [
        {
          "internalType": "uint256",
          "name": "",
          "type": "uint256"
        }
      ],
      "name": "licenseCategories",
      "outputs": [
        {
          "internalType": "string",
          "name": "",
          "type": "string"
        }
      ],
      "stateMutability": "view",
      "type": "function",
      "constant": true
    },
    {
      "inputs": [],
      "name": "name",
      "outputs": [
        {
          "internalType": "string",
          "name": "",
          "type": "string"
        }
      ],
      "stateMutability": "view",
      "type": "function",
      "constant": true
    },
    {
      "inputs": [
        {
          "internalType": "address",
          "name": "from",
          "type": "address"
        },
        {
          "internalType": "address",
          "name": "to",
          "type": "address"
        },
        {
          "internalType": "uint256[]",
          "name": "ids",
          "type": "uint256[]"
        },
        {
          "internalType": "uint256[]",
          "name": "amounts",
          "type": "uint256[]"
        },
        {
          "internalType": "bytes",
          "name": "data",
          "type": "bytes"
        }
      ],
      "name": "safeBatchTransferFrom",
      "outputs": [],
      "stateMutability": "nonpayable",
      "type": "function"
    },
    {
      "inputs": [
        {
          "internalType": "address",
          "name": "from",
          "type": "address"
        },
        {
          "internalType": "address",
          "name": "to",
          "type": "address"
        },
        {
          "internalType": "uint256",
          "name": "id",
          "type": "uint256"
        },
        {
          "internalType": "uint256",
          "name": "amount",
          "type": "uint256"
        },
        {
          "internalType": "bytes",
          "name": "data",
          "type": "bytes"
        }
      ],
      "name": "safeTransferFrom",
      "outputs": [],
      "stateMutability": "nonpayable",
      "type": "function"
    },
    {
      "inputs": [
        {
          "internalType": "address",
          "name": "operator",
          "type": "address"
        },
        {
          "internalType": "bool",
          "name": "approved",
          "type": "bool"
        }
      ],
      "name": "setApprovalForAll",
      "outputs": [],
      "stateMutability": "nonpayable",
      "type": "function"
    },
    {
      "inputs": [
        {
          "internalType": "bytes4",
          "name": "interfaceId",
          "type": "bytes4"
        }
      ],
      "name": "supportsInterface",
      "outputs": [
        {
          "internalType": "bool",
          "name": "",
          "type": "bool"
        }
      ],
      "stateMutability": "view",
      "type": "function",
      "constant": true
    },
    {
      "inputs": [],
      "name": "symbol",
      "outputs": [
        {
          "internalType": "string",
          "name": "",
          "type": "string"
        }
      ],
      "stateMutability": "view",
      "type": "function",
      "constant": true
    },
    {
      "inputs": [
        {
          "internalType": "uint256",
          "name": "",
          "type": "uint256"
        }
      ],
      "name": "uri",
      "outputs": [
        {
          "internalType": "string",
          "name": "",
          "type": "string"
        }
      ],
      "stateMutability": "view",
      "type": "function",
      "constant": true
    },
    {
      "inputs": [
        {
          "internalType": "uint256",
          "name": "_tokenId",
          "type": "uint256"
        }
      ],
      "name": "decode",
      "outputs": [
        {
          "internalType": "uint256",
          "name": "songId",
          "type": "uint256"
        },
        {
          "internalType": "uint32",
          "name": "categoryId",
          "type": "uint32"
        },
        {
          "internalType": "uint8",
          "name": "purposeId",
          "type": "uint8"
        }
      ],
      "stateMutability": "pure",
      "type": "function",
      "constant": true
    },
    {
      "inputs": [
        {
          "components": [
            {
              "internalType": "uint256",
              "name": "songId",
              "type": "uint256"
            },
            {
              "internalType": "uint256",
              "name": "categoryId",
              "type": "uint256"
            },
            {
              "internalType": "uint256",
              "name": "purposeId",
              "type": "uint256"
            },
            {
              "internalType": "uint256",
              "name": "totalSupply",
              "type": "uint256"
            },
            {
              "internalType": "uint256",
              "name": "availableSupply",
              "type": "uint256"
            }
          ],
          "internalType": "struct EthunesLicenses.License",
          "name": "license",
          "type": "tuple"
        }
      ],
      "name": "encode",
      "outputs": [
        {
          "internalType": "uint256",
          "name": "tokenId",
          "type": "uint256"
        }
      ],
      "stateMutability": "pure",
      "type": "function",
      "constant": true
    },
    {
      "inputs": [
        {
          "internalType": "address",
          "name": "_licenseHolder",
          "type": "address"
        },
        {
          "components": [
            {
              "internalType": "uint256",
              "name": "songId",
              "type": "uint256"
            },
            {
              "internalType": "uint256",
              "name": "categoryId",
              "type": "uint256"
            },
            {
              "internalType": "uint256",
              "name": "purposeId",
              "type": "uint256"
            },
            {
              "internalType": "uint256",
              "name": "totalSupply",
              "type": "uint256"
            },
            {
              "internalType": "uint256",
              "name": "availableSupply",
              "type": "uint256"
            }
          ],
          "internalType": "struct EthunesLicenses.License",
          "name": "_license",
          "type": "tuple"
        },
        {
          "internalType": "uint256",
          "name": "_amount",
          "type": "uint256"
        }
      ],
      "name": "mint",
      "outputs": [],
      "stateMutability": "nonpayable",
      "type": "function"
    },
    {
      "inputs": [
        {
          "internalType": "uint256",
          "name": "_categoryId",
          "type": "uint256"
        },
        {
          "internalType": "string",
          "name": "_uri",
          "type": "string"
        }
      ],
      "name": "updateCategory",
      "outputs": [],
      "stateMutability": "nonpayable",
      "type": "function"
    }
  ],
  "bytecode": "0x60c0604052600f60808190526e457468756e65734c6963656e73657360881b60a090815262000032916003919062000101565b506040805180820190915260038082526211551360ea1b60209092019182526200005f9160049162000101565b503480156200006d57600080fd5b506040516200203e3803806200203e8339810160408190526200009091620001a7565b6040518060600160405280602a815260200162002014602a9139620000b581620000e8565b50600680546001600160a01b039384166001600160a01b031991821617909155600780549290931691161790556200023b565b8051620000fd90600290602084019062000101565b5050565b8280546200010f90620001e5565b90600052602060002090601f0160209004810192826200013357600085556200017e565b82601f106200014e57805160ff19168380011785556200017e565b828001600101855582156200017e579182015b828111156200017e57825182559160200191906001019062000161565b506200018c92915062000190565b5090565b5b808211156200018c576000815560010162000191565b60008060408385031215620001ba578182fd5b8251620001c78162000222565b6020840151909250620001da8162000222565b809150509250929050565b600181811c90821680620001fa57607f821691505b602082108114156200021c57634e487b7160e01b600052602260045260246000fd5b50919050565b6001600160a01b03811681146200023857600080fd5b50565b611dc9806200024b6000396000f3fe608060405234801561001057600080fd5b506004361061011a5760003560e01c80634e1273f4116100b257806395d89b4111610081578063a22cb46511610066578063a22cb4651461029d578063e985e9c5146102b0578063f242432a146102ec57600080fd5b806395d89b41146102825780639c6275eb1461028a57600080fd5b80634e1273f4146101f657806361a76900146102165780636797d8be1461025c57806378697e5b1461026f57600080fd5b80630e89341c116100ee5780630e89341c1461019057806328af5676146101a35780632eb2c2d6146101ce5780633aa9f083146101e357600080fd5b8062fdd58e1461011f57806301ffc9a71461014557806306c68a521461016857806306fdde031461017b575b600080fd5b61013261012d36600461181a565b6102ff565b6040519081526020015b60405180910390f35b61015861015336600461192e565b6103a8565b604051901515815260200161013c565b610132610176366004611966565b610445565b61018361046b565b60405161013c9190611ba6565b61018361019e366004611981565b6104f9565b6007546101b6906001600160a01b031681565b6040516001600160a01b03909116815260200161013c565b6101e16101dc36600461169e565b61058d565b005b6101e16101f13660046117dc565b6108f5565b610209610204366004611845565b610a9c565b60405161013c9190611b36565b610239610224366004611981565b602881901c91600882901c63ffffffff169190565b6040805193845263ffffffff909216602084015260ff169082015260600161013c565b6006546101b6906001600160a01b031681565b6101e161027d366004611999565b610c12565b610183610d40565b610183610298366004611981565b610d4d565b6101e16102ab3660046117af565b610d66565b6101586102be366004611666565b6001600160a01b03918216600090815260016020908152604080832093909416825291909152205460ff1690565b6101e16102fa366004611748565b610e51565b60006001600160a01b0383166103825760405162461bcd60e51b815260206004820152602b60248201527f455243313135353a2062616c616e636520717565727920666f7220746865207a60448201527f65726f206164647265737300000000000000000000000000000000000000000060648201526084015b60405180910390fd5b506000908152602081815260408083206001600160a01b03949094168352929052205490565b60006001600160e01b031982167fd9b67a2600000000000000000000000000000000000000000000000000000000148061040b57506001600160e01b031982167f0e89341c00000000000000000000000000000000000000000000000000000000145b8061043f57507f01ffc9a7000000000000000000000000000000000000000000000000000000006001600160e01b03198316145b92915050565b60006040820135610461602084013560081b843560281b611bdd565b61043f9190611bdd565b6003805461047890611c0c565b80601f01602080910402602001604051908101604052809291908181526020018280546104a490611c0c565b80156104f15780601f106104c6576101008083540402835291602001916104f1565b820191906000526020600020905b8154815290600101906020018083116104d457829003601f168201915b505050505081565b60606002805461050890611c0c565b80601f016020809104026020016040519081016040528092919081815260200182805461053490611c0c565b80156105815780601f1061055657610100808354040283529160200191610581565b820191906000526020600020905b81548152906001019060200180831161056457829003601f168201915b50505050509050919050565b81518351146106045760405162461bcd60e51b815260206004820152602860248201527f455243313135353a2069647320616e6420616d6f756e7473206c656e6774682060448201527f6d69736d617463680000000000000000000000000000000000000000000000006064820152608401610379565b6001600160a01b0384166106685760405162461bcd60e51b815260206004820152602560248201527f455243313135353a207472616e7366657220746f20746865207a65726f206164604482015264647265737360d81b6064820152608401610379565b6001600160a01b038516331480610684575061068485336102be565b6106f65760405162461bcd60e51b815260206004820152603260248201527f455243313135353a207472616e736665722063616c6c6572206973206e6f742060448201527f6f776e6572206e6f7220617070726f76656400000000000000000000000000006064820152608401610379565b3360005b845181101561088757600085828151811061072557634e487b7160e01b600052603260045260246000fd5b60200260200101519050600085838151811061075157634e487b7160e01b600052603260045260246000fd5b602090810291909101810151600084815280835260408082206001600160a01b038e1683529093529190912054909150818110156107e45760405162461bcd60e51b815260206004820152602a60248201527f455243313135353a20696e73756666696369656e742062616c616e636520666f60448201526939103a3930b739b332b960b11b6064820152608401610379565b6107ee8282611bf5565b60008085815260200190815260200160002060008c6001600160a01b03166001600160a01b03168152602001908152602001600020819055508160008085815260200190815260200160002060008b6001600160a01b03166001600160a01b03168152602001908152602001600020600082825461086c9190611bdd565b925050819055505050508061088090611c6e565b90506106fa565b50846001600160a01b0316866001600160a01b0316826001600160a01b03167f4a39dc06d4c0dbc64b70af90fd698a233a518aa5d07e595d983b8c0526c8f7fb87876040516108d7929190611b49565b60405180910390a46108ed818787878787611096565b505050505050565b336006546040517f6352211e000000000000000000000000000000000000000000000000000000008152843560048201526001600160a01b039283169290911690636352211e9060240160206040518083038186803b15801561095757600080fd5b505afa15801561096b573d6000803e3d6000fd5b505050506040513d601f19601f8201168201806040525081019061098f9190611643565b6001600160a01b03161480610a2857506007546001600160a01b031663134c1d83336040516001600160e01b031960e084901b1681526001600160a01b03909116600482015260240160206040518083038186803b1580156109f057600080fd5b505afa158015610a04573d6000803e3d6000fd5b505050506040513d601f19601f82011682018060405250810190610a289190611912565b610a745760405162461bcd60e51b815260206004820152601160248201527f7065726d697373696f6e2064656e6965640000000000000000000000000000006044820152606401610379565b610a9783610a8184610445565b836040518060200160405280600081525061124b565b505050565b60608151835114610b155760405162461bcd60e51b815260206004820152602960248201527f455243313135353a206163636f756e747320616e6420696473206c656e67746860448201527f206d69736d6174636800000000000000000000000000000000000000000000006064820152608401610379565b6000835167ffffffffffffffff811115610b3f57634e487b7160e01b600052604160045260246000fd5b604051908082528060200260200182016040528015610b68578160200160208202803683370190505b50905060005b8451811015610c0a57610bcf858281518110610b9a57634e487b7160e01b600052603260045260246000fd5b6020026020010151858381518110610bc257634e487b7160e01b600052603260045260246000fd5b60200260200101516102ff565b828281518110610bef57634e487b7160e01b600052603260045260246000fd5b6020908102919091010152610c0381611c6e565b9050610b6e565b509392505050565b6007546001600160a01b031663c395fcb3336040516001600160e01b031960e084901b1681526001600160a01b03909116600482015260240160206040518083038186803b158015610c6357600080fd5b505afa158015610c77573d6000803e3d6000fd5b505050506040513d601f19601f82011682018060405250810190610c9b9190611912565b610ce75760405162461bcd60e51b815260206004820152601160248201527f63616c6c6572206e6f742061646d696e2e0000000000000000000000000000006044820152606401610379565b6000838152600560205260409020610d009083836114b0565b50827ffd7316cbedd3d932ad9bf468f2e218f33572807f3378d81c8eafdcec0fded7fa8383604051610d33929190611b77565b60405180910390a2505050565b6004805461047890611c0c565b6005602052600090815260409020805461047890611c0c565b336001600160a01b0383161415610de55760405162461bcd60e51b815260206004820152602960248201527f455243313135353a2073657474696e6720617070726f76616c2073746174757360448201527f20666f722073656c6600000000000000000000000000000000000000000000006064820152608401610379565b3360008181526001602090815260408083206001600160a01b03871680855290835292819020805460ff191686151590811790915590519081529192917f17307eab39ab6107e8899845ad3d59bd9653f200f220920489ca2b5937696c31910160405180910390a35050565b6001600160a01b038416610eb55760405162461bcd60e51b815260206004820152602560248201527f455243313135353a207472616e7366657220746f20746865207a65726f206164604482015264647265737360d81b6064820152608401610379565b6001600160a01b038516331480610ed15750610ed185336102be565b610f435760405162461bcd60e51b815260206004820152602960248201527f455243313135353a2063616c6c6572206973206e6f74206f776e6572206e6f7260448201527f20617070726f76656400000000000000000000000000000000000000000000006064820152608401610379565b33610f63818787610f538861134c565b610f5c8861134c565b5050505050565b6000848152602081815260408083206001600160a01b038a16845290915290205483811015610fe75760405162461bcd60e51b815260206004820152602a60248201527f455243313135353a20696e73756666696369656e742062616c616e636520666f60448201526939103a3930b739b332b960b11b6064820152608401610379565b610ff18482611bf5565b6000868152602081815260408083206001600160a01b038c8116855292528083209390935588168152908120805486929061102d908490611bdd565b909155505060408051868152602081018690526001600160a01b03808916928a821692918616917fc3d58168c5ae7397731d063d5bbf3d657854427343f4c083240f7aacaa2d0f62910160405180910390a461108d8288888888886113a5565b50505050505050565b6001600160a01b0384163b156108ed5760405163bc197c8160e01b81526001600160a01b0385169063bc197c81906110da9089908990889088908890600401611a95565b602060405180830381600087803b1580156110f457600080fd5b505af1925050508015611124575060408051601f3d908101601f191682019092526111219181019061194a565b60015b6111da57611130611cb5565b806308c379a0141561116a5750611145611ccd565b80611150575061116c565b8060405162461bcd60e51b81526004016103799190611ba6565b505b60405162461bcd60e51b815260206004820152603460248201527f455243313135353a207472616e7366657220746f206e6f6e204552433131353560448201527f526563656976657220696d706c656d656e7465720000000000000000000000006064820152608401610379565b6001600160e01b0319811663bc197c8160e01b1461108d5760405162461bcd60e51b815260206004820152602860248201527f455243313135353a204552433131353552656365697665722072656a656374656044820152676420746f6b656e7360c01b6064820152608401610379565b6001600160a01b0384166112ab5760405162461bcd60e51b815260206004820152602160248201527f455243313135353a206d696e7420746f20746865207a65726f206164647265736044820152607360f81b6064820152608401610379565b336112bc81600087610f538861134c565b6000848152602081815260408083206001600160a01b0389168452909152812080548592906112ec908490611bdd565b909155505060408051858152602081018590526001600160a01b0380881692600092918516917fc3d58168c5ae7397731d063d5bbf3d657854427343f4c083240f7aacaa2d0f62910160405180910390a4610f5c816000878787876113a5565b6040805160018082528183019092526060916000919060208083019080368337019050509050828160008151811061139457634e487b7160e01b600052603260045260246000fd5b602090810291909101015292915050565b6001600160a01b0384163b156108ed5760405163f23a6e6160e01b81526001600160a01b0385169063f23a6e61906113e99089908990889088908890600401611af3565b602060405180830381600087803b15801561140357600080fd5b505af1925050508015611433575060408051601f3d908101601f191682019092526114309181019061194a565b60015b61143f57611130611cb5565b6001600160e01b0319811663f23a6e6160e01b1461108d5760405162461bcd60e51b815260206004820152602860248201527f455243313135353a204552433131353552656365697665722072656a656374656044820152676420746f6b656e7360c01b6064820152608401610379565b8280546114bc90611c0c565b90600052602060002090601f0160209004810192826114de5760008555611524565b82601f106114f75782800160ff19823516178555611524565b82800160010185558215611524579182015b82811115611524578235825591602001919060010190611509565b50611530929150611534565b5090565b5b808211156115305760008155600101611535565b600082601f830112611559578081fd5b8135602061156682611bb9565b6040516115738282611c41565b8381528281019150858301600585901b87018401881015611592578586fd5b855b858110156115b057813584529284019290840190600101611594565b5090979650505050505050565b600082601f8301126115cd578081fd5b813567ffffffffffffffff8111156115e7576115e7611c9f565b6040516115fe601f8301601f191660200182611c41565b818152846020838601011115611612578283fd5b816020850160208301379081016020019190915292915050565b600060a0828403121561163d578081fd5b50919050565b600060208284031215611654578081fd5b815161165f81611d57565b9392505050565b60008060408385031215611678578081fd5b823561168381611d57565b9150602083013561169381611d57565b809150509250929050565b600080600080600060a086880312156116b5578081fd5b85356116c081611d57565b945060208601356116d081611d57565b9350604086013567ffffffffffffffff808211156116ec578283fd5b6116f889838a01611549565b9450606088013591508082111561170d578283fd5b61171989838a01611549565b9350608088013591508082111561172e578283fd5b5061173b888289016115bd565b9150509295509295909350565b600080600080600060a0868803121561175f578081fd5b853561176a81611d57565b9450602086013561177a81611d57565b93506040860135925060608601359150608086013567ffffffffffffffff8111156117a3578182fd5b61173b888289016115bd565b600080604083850312156117c1578182fd5b82356117cc81611d57565b9150602083013561169381611d6f565b600080600060e084860312156117f0578283fd5b83356117fb81611d57565b925061180a856020860161162c565b915060c084013590509250925092565b6000806040838503121561182c578182fd5b823561183781611d57565b946020939093013593505050565b60008060408385031215611857578182fd5b823567ffffffffffffffff8082111561186e578384fd5b818501915085601f830112611881578384fd5b8135602061188e82611bb9565b60405161189b8282611c41565b8381528281019150858301600585901b870184018b10156118ba578889fd5b8896505b848710156118e55780356118d181611d57565b8352600196909601959183019183016118be565b50965050860135925050808211156118fb578283fd5b5061190885828601611549565b9150509250929050565b600060208284031215611923578081fd5b815161165f81611d6f565b60006020828403121561193f578081fd5b813561165f81611d7d565b60006020828403121561195b578081fd5b815161165f81611d7d565b600060a08284031215611977578081fd5b61165f838361162c565b600060208284031215611992578081fd5b5035919050565b6000806000604084860312156119ad578081fd5b83359250602084013567ffffffffffffffff808211156119cb578283fd5b818601915086601f8301126119de578283fd5b8135818111156119ec578384fd5b8760208285010111156119fd578384fd5b6020830194508093505050509250925092565b6000815180845260208085019450808401835b83811015611a3f57815187529582019590820190600101611a23565b509495945050505050565b60008151808452815b81811015611a6f57602081850181015186830182015201611a53565b81811115611a805782602083870101525b50601f01601f19169290920160200192915050565b60006001600160a01b03808816835280871660208401525060a06040830152611ac160a0830186611a10565b8281036060840152611ad38186611a10565b90508281036080840152611ae78185611a4a565b98975050505050505050565b60006001600160a01b03808816835280871660208401525084604083015283606083015260a06080830152611b2b60a0830184611a4a565b979650505050505050565b60208152600061165f6020830184611a10565b604081526000611b5c6040830185611a10565b8281036020840152611b6e8185611a10565b95945050505050565b60208152816020820152818360408301376000818301604090810191909152601f909201601f19160101919050565b60208152600061165f6020830184611a4a565b600067ffffffffffffffff821115611bd357611bd3611c9f565b5060051b60200190565b60008219821115611bf057611bf0611c89565b500190565b600082821015611c0757611c07611c89565b500390565b600181811c90821680611c2057607f821691505b6020821081141561163d57634e487b7160e01b600052602260045260246000fd5b601f8201601f1916810167ffffffffffffffff81118282101715611c6757611c67611c9f565b6040525050565b6000600019821415611c8257611c82611c89565b5060010190565b634e487b7160e01b600052601160045260246000fd5b634e487b7160e01b600052604160045260246000fd5b600060033d1115611cca57600481823e5160e01c5b90565b600060443d1015611cdb5790565b6040516003193d81016004833e81513d67ffffffffffffffff8160248401118184111715611d0b57505050505090565b8285019150815181811115611d235750505050505090565b843d8701016020828501011115611d3d5750505050505090565b611d4c60208286010187611c41565b509095945050505050565b6001600160a01b0381168114611d6c57600080fd5b50565b8015158114611d6c57600080fd5b6001600160e01b031981168114611d6c57600080fdfea2646970667358221220b580491493c0fd292674860d0647936d6d666c5109b3d09f1ea748d54996fffa64736f6c6343000804003368747470733a2f2f657468756e65732e636f6d2f6170692f6c6963656e7365732f7b69647d2e6a736f6e",
  "immutableReferences": {},
  "source": "// SPDX-License-Identifier: MIT\npragma solidity ^0.8.0;\n\nimport \"@openzeppelin/contracts/token/ERC1155/ERC1155.sol\";\nimport \"./EthunesSongs.sol\";\nimport \"./EthunesAccessControl.sol\";\n\n\ncontract EthunesLicenses is ERC1155 {\n\n    event LicenseIssued(\n        uint256 tokenId,\n        uint256 songId,\n        address indexed issuer,\n        address indexed licensee\n    );\n\n    event LicenseCategoryUpdated(uint256 indexed categoryId, bytes categoryURI);\n    \n    // Token name\n    string public name = \"EthunesLicenses\";\n\n    // Token symbol\n    string public symbol = \"ETL\"; \n\n    struct License {\n        uint256 songId;\n        uint256 categoryId;\n        uint256 purposeId;\n        uint256 totalSupply;\n        uint256 availableSupply;\n    }\n    // LicenseCategoryId => LicenseCategory metadata\n    mapping(uint256 => string) public licenseCategories;\n\n    EthunesSongs public ethunesSongs;\n    EthunesAccessControl public ethunesAccessControl;\n\n    // TODO constructor should take ERC721's address\n    constructor(EthunesSongs _ethunesSongs, EthunesAccessControl _ethunesAccessControl) ERC1155(\"https://ethunes.com/api/licenses/{id}.json\") {\n        ethunesSongs = _ethunesSongs;\n        ethunesAccessControl = _ethunesAccessControl;\n    }\n\n    /**\n     * @dev decode from license's tokenId to license struct\n     */\n    function decode(uint256 _tokenId) public pure returns (uint256 songId, uint32 categoryId, uint8 purposeId) {\n        // first byte is the purpose id, next 4 bytes is the categoryId and the remaining is the songId \n        return ( _tokenId >> 40, uint32(_tokenId << 216 >> 224), uint8 (_tokenId) );\n    }\n\n    /**\n     * @dev encode license details into tokenId\n     */\n    function encode(License calldata license) public pure returns (uint256 tokenId) {\n       return (uint256(license.songId) << 40) + (uint256(license.categoryId) << 8) + uint256(license.purposeId); \n    }\n\n    /**\n     * @dev mint iff owner owns this ERC721 token\n     */\n    function mint(address _licenseHolder, License calldata _license, uint256 _amount) external {\n        // Check to caller owns the ERC721\n        // License memory license = decode(tokenId);\n        require(ethunesSongs.ownerOf(_license.songId) == _msgSender() ||\n        ethunesAccessControl.hasContractWhitelistRole(_msgSender()), \"permission denied\");\n        _mint(_licenseHolder, encode(_license), _amount, \"\");\n    }\n\n    /**\n     * @dev Admin can add a new/update gatefory\n     */\n    function updateCategory(uint256 _categoryId, string calldata _uri) external {\n        require(ethunesAccessControl.hasAdminRole(_msgSender()),\"caller not admin.\");\n        licenseCategories[_categoryId] = _uri;\n        emit LicenseCategoryUpdated(_categoryId, bytes(_uri));\n    }\n}",
  "sourcePath": "/Users/mehradkavian/Dropbox/ethunes/ethunes-contracts/contracts/EthunesLicenses.sol",
  "compiler": {
    "name": "solc",
    "version": "0.8.4+commit.c7e474f2.Emscripten.clang"
  },
  "schemaVersion": "3.3.4",
  "updatedAt": "2021-05-30T03:05:22.358Z",
  "networkType": "ethereum",
  "devdoc": {
    "kind": "dev",
    "methods": {
      "balanceOf(address,uint256)": {
        "details": "See {IERC1155-balanceOf}. Requirements: - `account` cannot be the zero address."
      },
      "balanceOfBatch(address[],uint256[])": {
        "details": "See {IERC1155-balanceOfBatch}. Requirements: - `accounts` and `ids` must have the same length."
      },
      "decode(uint256)": {
        "details": "decode from license's tokenId to license struct"
      },
      "encode((uint256,uint256,uint256,uint256,uint256))": {
        "details": "encode license details into tokenId"
      },
      "isApprovedForAll(address,address)": {
        "details": "See {IERC1155-isApprovedForAll}."
      },
      "mint(address,(uint256,uint256,uint256,uint256,uint256),uint256)": {
        "details": "mint iff owner owns this ERC721 token"
      },
      "safeBatchTransferFrom(address,address,uint256[],uint256[],bytes)": {
        "details": "See {IERC1155-safeBatchTransferFrom}."
      },
      "safeTransferFrom(address,address,uint256,uint256,bytes)": {
        "details": "See {IERC1155-safeTransferFrom}."
      },
      "setApprovalForAll(address,bool)": {
        "details": "See {IERC1155-setApprovalForAll}."
      },
      "supportsInterface(bytes4)": {
        "details": "See {IERC165-supportsInterface}."
      },
      "updateCategory(uint256,string)": {
        "details": "Admin can add a new/update gatefory"
      },
      "uri(uint256)": {
        "details": "See {IERC1155MetadataURI-uri}. This implementation returns the same URI for *all* token types. It relies on the token type ID substitution mechanism https://eips.ethereum.org/EIPS/eip-1155#metadata[defined in the EIP]. Clients calling this function must replace the `\\{id\\}` substring with the actual token type ID."
      }
    },
    "version": 1
  },
  "userdoc": {
    "kind": "user",
    "methods": {},
    "version": 1
  }
}