{
  "contractName": "EthunesMarketplace",
  "abi": [
    {
      "inputs": [
        {
          "internalType": "contract EthunesAccessControl",
          "name": "_ethunesAccessControl",
          "type": "address"
        },
        {
          "internalType": "contract EthunesSongs",
          "name": "_ethunesSongs",
          "type": "address"
        },
        {
          "internalType": "contract EthunesLicenses",
          "name": "_ethunesLicenses",
          "type": "address"
        },
        {
          "internalType": "address payable",
          "name": "_platform",
          "type": "address"
        }
      ],
      "stateMutability": "nonpayable",
      "type": "constructor"
    },
    {
      "anonymous": false,
      "inputs": [
        {
          "indexed": true,
          "internalType": "uint256",
          "name": "LicenseId",
          "type": "uint256"
        },
        {
          "indexed": true,
          "internalType": "address",
          "name": "publisher",
          "type": "address"
        },
        {
          "indexed": false,
          "internalType": "uint256",
          "name": "price",
          "type": "uint256"
        }
      ],
      "name": "EthunesLicenseAdded",
      "type": "event"
    },
    {
      "anonymous": false,
      "inputs": [
        {
          "indexed": true,
          "internalType": "uint256",
          "name": "licenseId",
          "type": "uint256"
        },
        {
          "indexed": true,
          "internalType": "address",
          "name": "publisher",
          "type": "address"
        },
        {
          "indexed": true,
          "internalType": "address",
          "name": "holder",
          "type": "address"
        },
        {
          "indexed": false,
          "internalType": "uint256",
          "name": "price",
          "type": "uint256"
        }
      ],
      "name": "EthunesLicensePurchased",
      "type": "event"
    },
    {
      "anonymous": false,
      "inputs": [
        {
          "indexed": true,
          "internalType": "uint256",
          "name": "songId",
          "type": "uint256"
        },
        {
          "indexed": true,
          "internalType": "address",
          "name": "publisher",
          "type": "address"
        },
        {
          "indexed": false,
          "internalType": "string",
          "name": "uri",
          "type": "string"
        }
      ],
      "name": "EthunesSongPublished",
      "type": "event"
    },
    {
      "anonymous": false,
      "inputs": [
        {
          "indexed": true,
          "internalType": "bytes32",
          "name": "role",
          "type": "bytes32"
        },
        {
          "indexed": true,
          "internalType": "bytes32",
          "name": "previousAdminRole",
          "type": "bytes32"
        },
        {
          "indexed": true,
          "internalType": "bytes32",
          "name": "newAdminRole",
          "type": "bytes32"
        }
      ],
      "name": "RoleAdminChanged",
      "type": "event"
    },
    {
      "anonymous": false,
      "inputs": [
        {
          "indexed": true,
          "internalType": "bytes32",
          "name": "role",
          "type": "bytes32"
        },
        {
          "indexed": true,
          "internalType": "address",
          "name": "account",
          "type": "address"
        },
        {
          "indexed": true,
          "internalType": "address",
          "name": "sender",
          "type": "address"
        }
      ],
      "name": "RoleGranted",
      "type": "event"
    },
    {
      "anonymous": false,
      "inputs": [
        {
          "indexed": true,
          "internalType": "bytes32",
          "name": "role",
          "type": "bytes32"
        },
        {
          "indexed": true,
          "internalType": "address",
          "name": "account",
          "type": "address"
        },
        {
          "indexed": true,
          "internalType": "address",
          "name": "sender",
          "type": "address"
        }
      ],
      "name": "RoleRevoked",
      "type": "event"
    },
    {
      "inputs": [],
      "name": "DEFAULT_ADMIN_ROLE",
      "outputs": [
        {
          "internalType": "bytes32",
          "name": "",
          "type": "bytes32"
        }
      ],
      "stateMutability": "view",
      "type": "function",
      "constant": true
    },
    {
      "inputs": [],
      "name": "ONE_HUNDRED_PERCENTAGE",
      "outputs": [
        {
          "internalType": "uint256",
          "name": "",
          "type": "uint256"
        }
      ],
      "stateMutability": "view",
      "type": "function",
      "constant": true
    },
    {
      "inputs": [],
      "name": "ethunesAccessControl",
      "outputs": [
        {
          "internalType": "contract EthunesAccessControl",
          "name": "",
          "type": "address"
        }
      ],
      "stateMutability": "view",
      "type": "function",
      "constant": true
    },
    {
      "inputs": [],
      "name": "ethunesLicenses",
      "outputs": [
        {
          "internalType": "contract EthunesLicenses",
          "name": "",
          "type": "address"
        }
      ],
      "stateMutability": "view",
      "type": "function",
      "constant": true
    },
    {
      "inputs": [],
      "name": "ethunesSongs",
      "outputs": [
        {
          "internalType": "contract EthunesSongs",
          "name": "",
          "type": "address"
        }
      ],
      "stateMutability": "view",
      "type": "function",
      "constant": true
    },
    {
      "inputs": [
        {
          "internalType": "bytes32",
          "name": "role",
          "type": "bytes32"
        }
      ],
      "name": "getRoleAdmin",
      "outputs": [
        {
          "internalType": "bytes32",
          "name": "",
          "type": "bytes32"
        }
      ],
      "stateMutability": "view",
      "type": "function",
      "constant": true
    },
    {
      "inputs": [
        {
          "internalType": "bytes32",
          "name": "role",
          "type": "bytes32"
        },
        {
          "internalType": "address",
          "name": "account",
          "type": "address"
        }
      ],
      "name": "grantRole",
      "outputs": [],
      "stateMutability": "nonpayable",
      "type": "function"
    },
    {
      "inputs": [
        {
          "internalType": "bytes32",
          "name": "role",
          "type": "bytes32"
        },
        {
          "internalType": "address",
          "name": "account",
          "type": "address"
        }
      ],
      "name": "hasRole",
      "outputs": [
        {
          "internalType": "bool",
          "name": "",
          "type": "bool"
        }
      ],
      "stateMutability": "view",
      "type": "function",
      "constant": true
    },
    {
      "inputs": [
        {
          "internalType": "uint256",
          "name": "",
          "type": "uint256"
        }
      ],
      "name": "licenseListings",
      "outputs": [
        {
          "internalType": "address payable",
          "name": "originalPublisher",
          "type": "address"
        },
        {
          "internalType": "uint256",
          "name": "price",
          "type": "uint256"
        }
      ],
      "stateMutability": "view",
      "type": "function",
      "constant": true
    },
    {
      "inputs": [],
      "name": "publisherRoyaltyPercentage",
      "outputs": [
        {
          "internalType": "uint256",
          "name": "",
          "type": "uint256"
        }
      ],
      "stateMutability": "view",
      "type": "function",
      "constant": true
    },
    {
      "inputs": [
        {
          "internalType": "bytes32",
          "name": "role",
          "type": "bytes32"
        },
        {
          "internalType": "address",
          "name": "account",
          "type": "address"
        }
      ],
      "name": "renounceRole",
      "outputs": [],
      "stateMutability": "nonpayable",
      "type": "function"
    },
    {
      "inputs": [
        {
          "internalType": "bytes32",
          "name": "role",
          "type": "bytes32"
        },
        {
          "internalType": "address",
          "name": "account",
          "type": "address"
        }
      ],
      "name": "revokeRole",
      "outputs": [],
      "stateMutability": "nonpayable",
      "type": "function"
    },
    {
      "inputs": [
        {
          "internalType": "uint256",
          "name": "",
          "type": "uint256"
        }
      ],
      "name": "songCreators",
      "outputs": [
        {
          "internalType": "address",
          "name": "",
          "type": "address"
        }
      ],
      "stateMutability": "view",
      "type": "function",
      "constant": true
    },
    {
      "inputs": [
        {
          "internalType": "bytes4",
          "name": "interfaceId",
          "type": "bytes4"
        }
      ],
      "name": "supportsInterface",
      "outputs": [
        {
          "internalType": "bool",
          "name": "",
          "type": "bool"
        }
      ],
      "stateMutability": "view",
      "type": "function",
      "constant": true
    },
    {
      "inputs": [
        {
          "internalType": "string",
          "name": "_songURI",
          "type": "string"
        },
        {
          "internalType": "uint256[]",
          "name": "_licenseCategories",
          "type": "uint256[]"
        },
        {
          "internalType": "uint256[]",
          "name": "_licensePurposes",
          "type": "uint256[]"
        },
        {
          "internalType": "uint256[]",
          "name": "_prices",
          "type": "uint256[]"
        }
      ],
      "name": "publishSongAndLicense",
      "outputs": [],
      "stateMutability": "nonpayable",
      "type": "function"
    },
    {
      "inputs": [
        {
          "internalType": "uint256",
          "name": "_songId",
          "type": "uint256"
        },
        {
          "internalType": "uint256",
          "name": "_licenseCategory",
          "type": "uint256"
        },
        {
          "internalType": "uint256",
          "name": "_licensePurpose",
          "type": "uint256"
        },
        {
          "internalType": "uint256",
          "name": "_price",
          "type": "uint256"
        }
      ],
      "name": "listNewLicense",
      "outputs": [],
      "stateMutability": "nonpayable",
      "type": "function"
    },
    {
      "inputs": [
        {
          "internalType": "uint256",
          "name": "_songId",
          "type": "uint256"
        },
        {
          "internalType": "uint256",
          "name": "_licenseCategory",
          "type": "uint256"
        },
        {
          "internalType": "uint256",
          "name": "_licensePurpose",
          "type": "uint256"
        },
        {
          "internalType": "uint256",
          "name": "_quantity",
          "type": "uint256"
        }
      ],
      "name": "purchaseLicense",
      "outputs": [],
      "stateMutability": "payable",
      "type": "function",
      "payable": true
    }
  ],
  "bytecode": "0x60806040526101f46002553480156200001757600080fd5b5060405162001813380380620018138339810160408190526200003a9162000092565b60018055600680546001600160a01b039586166001600160a01b031991821617909155600780549486169482169490941790935560088054928516928416929092179091556005805491909316911617905562000112565b60008060008060808587031215620000a8578384fd5b8451620000b581620000f9565b6020860151909450620000c881620000f9565b6040860151909350620000db81620000f9565b6060860151909250620000ee81620000f9565b939692955090935050565b6001600160a01b03811681146200010f57600080fd5b50565b6116f180620001226000396000f3fe60806040526004361061010e5760003560e01c80632f2ff15d116100a55780638e566f2411610074578063a1a7c89c11610059578063a1a7c89c14610382578063a217fddf14610398578063d547741f146103ad57600080fd5b80638e566f24146102df57806391d148541461033e57600080fd5b80632f2ff15d1461026c57806336568abe1461028c5780636797d8be146102ac5780636f817ded146102cc57600080fd5b80632372be9a116100e15780632372be9a146101d8578063248a9ca3146101fc57806328af56761461022c5780632f020e5a1461024c57600080fd5b806301ffc9a71461011357806312938a8a146101485780631ba611df1461019657806322eca2ab146101b8575b600080fd5b34801561011f57600080fd5b5061013361012e3660046112cb565b6103cd565b60405190151581526020015b60405180910390f35b34801561015457600080fd5b5061017e610163366004611284565b6004602052600090815260409020546001600160a01b031681565b6040516001600160a01b03909116815260200161013f565b3480156101a257600080fd5b506101b66101b1366004611434565b610436565b005b3480156101c457600080fd5b506101b66101d33660046112f3565b6106ef565b3480156101e457600080fd5b506101ee60025481565b60405190815260200161013f565b34801561020857600080fd5b506101ee610217366004611284565b60009081526020819052604090206001015490565b34801561023857600080fd5b5060065461017e906001600160a01b031681565b34801561025857600080fd5b5060085461017e906001600160a01b031681565b34801561027857600080fd5b506101b661028736600461129c565b6108d1565b34801561029857600080fd5b506101b66102a736600461129c565b6108fc565b3480156102b857600080fd5b5060075461017e906001600160a01b031681565b6101b66102da366004611434565b610988565b3480156102eb57600080fd5b5061031f6102fa366004611284565b600360205260009081526040902080546001909101546001600160a01b039091169082565b604080516001600160a01b03909316835260208301919091520161013f565b34801561034a57600080fd5b5061013361035936600461129c565b6000918252602082815260408084206001600160a01b0393909316845291905290205460ff1690565b34801561038e57600080fd5b506101ee61271081565b3480156103a457600080fd5b506101ee600081565b3480156103b957600080fd5b506101b66103c836600461129c565b610e47565b60006001600160e01b031982167f7965db0b00000000000000000000000000000000000000000000000000000000148061043057507f01ffc9a7000000000000000000000000000000000000000000000000000000006001600160e01b03198316145b92915050565b336007546040516331a9108f60e11b8152600481018790526001600160a01b039283169290911690636352211e9060240160206040518083038186803b15801561047f57600080fd5b505afa158015610493573d6000803e3d6000fd5b505050506040513d601f19601f820116820180604052508101906104b79190611248565b6001600160a01b0316146105125760405162461bcd60e51b815260206004820152600b60248201527f77726f6e67206f776e657200000000000000000000000000000000000000000060448201526064015b60405180910390fd5b60006040518060a00160405280868152602001858152602001848152602001600081526020016000815250905060405180604001604052806105513390565b6001600160a01b0390811682526020909101849052600854604051630363452960e11b815260039260009216906306c68a52906105929087906004016115a5565b60206040518083038186803b1580156105aa57600080fd5b505afa1580156105be573d6000803e3d6000fd5b505050506040513d601f19601f820116820180604052508101906105e2919061141c565b8152602080820192909252604001600020825181547fffffffffffffffffffffffff0000000000000000000000000000000000000000166001600160a01b0390911617815591015160019091015533600854604051630363452960e11b81526001600160a01b0392831692909116906306c68a52906106659085906004016115a5565b60206040518083038186803b15801561067d57600080fd5b505afa158015610691573d6000803e3d6000fd5b505050506040513d601f19601f820116820180604052508101906106b5919061141c565b6040518481527f95a34b2daca26e4fcd8f4db69bc16f2058a649cd978cb59da4f8f8c0834aae8f9060200160405180910390a35050505050565b84831480156106fd57508481145b6107495760405162461bcd60e51b815260206004820152601a60248201527f6d6973746d61746368696e6720696e707574206c656e6774682e0000000000006044820152606401610509565b6007546040517fd0def5210000000000000000000000000000000000000000000000000000000081526000916001600160a01b03169063d0def521906107959033908c90600401611512565b602060405180830381600087803b1580156107af57600080fd5b505af11580156107c3573d6000803e3d6000fd5b505050506040513d601f19601f820116820180604052508101906107e7919061141c565b905060005b86811015610884576108728289898481811061081857634e487b7160e01b600052603260045260246000fd5b9050602002013588888581811061083f57634e487b7160e01b600052603260045260246000fd5b9050602002013587878681811061086657634e487b7160e01b600052603260045260246000fd5b90506020020135610436565b8061087c8161165c565b9150506107ec565b50336001600160a01b0316817f86a1621e8f2e94f6fcc757eaa651f00398b11bcfdc825338e335667e97d4b6058a6040516108bf9190611592565b60405180910390a35050505050505050565b6000828152602081905260409020600101546108ed8133610e6d565b6108f78383610eeb565b505050565b6001600160a01b038116331461097a5760405162461bcd60e51b815260206004820152602f60248201527f416363657373436f6e74726f6c3a2063616e206f6e6c792072656e6f756e636560448201527f20726f6c657320666f722073656c6600000000000000000000000000000000006064820152608401610509565b6109848282610f89565b5050565b6007546040517ff8e76cc0000000000000000000000000000000000000000000000000000000008152600481018690526001600160a01b039091169063f8e76cc09060240160206040518083038186803b1580156109e557600080fd5b505afa1580156109f9573d6000803e3d6000fd5b505050506040513d601f19601f82011682018060405250810190610a1d9190611264565b610a695760405162461bcd60e51b815260206004820152600f60248201527f736f6e67206e6f742065786973747300000000000000000000000000000000006044820152606401610509565b6040805160a08101825285815260208101859052808201849052600060608201819052608082018190526008549251630363452960e11b8152919290916001600160a01b03909116906306c68a5290610ac69085906004016115a5565b60206040518083038186803b158015610ade57600080fd5b505afa158015610af2573d6000803e3d6000fd5b505050506040513d601f19601f82011682018060405250810190610b16919061141c565b60008181526003602052604080822060075491516331a9108f60e11b8152600481018b9052939450926001600160a01b0390911690636352211e9060240160206040518083038186803b158015610b6c57600080fd5b505afa158015610b80573d6000803e3d6000fd5b505050506040513d601f19601f82011682018060405250810190610ba49190611248565b82549091506001600160a01b038083169116148015610bcc575081546001600160a01b031615155b610c185760405162461bcd60e51b815260206004820152601560248201527f6f776e6572206f6620736f6e67206368616e67656400000000000000000000006044820152606401610509565b60008511610c685760405162461bcd60e51b815260206004820152601160248201527f696e76616c6964207175616e746974792e0000000000000000000000000000006044820152606401610509565b600182015415610d6a5781600101543414610cc55760405162461bcd60e51b815260206004820152601860248201527f76616c7565206e6f74206d61746368696e6720707269636500000000000000006044820152606401610509565b6000816001600160a01b03163460405160006040518083038185875af1925050503d8060008114610d12576040519150601f19603f3d011682016040523d82523d6000602084013e610d17565b606091505b5050905080610d685760405162461bcd60e51b815260206004820152601760248201527f6661696c656420746f2070617920736f6e674f776e65720000000000000000006044820152606401610509565b505b6008546001600160a01b0316633aa9f0833386886040518463ffffffff1660e01b8152600401610d9c9392919061153c565b602060405180830381600087803b158015610db657600080fd5b505af1158015610dca573d6000803e3d6000fd5b505050506040513d601f19601f82011682018060405250810190610dee919061141c565b50336001600160a01b0316816001600160a01b0316847ff1baa3971071d07c969a10b411b00979094cae1990b04d42f51de55ba2b2d71734604051610e3591815260200190565b60405180910390a45050505050505050565b600082815260208190526040902060010154610e638133610e6d565b6108f78383610f89565b6000828152602081815260408083206001600160a01b038516845290915290205460ff1661098457610ea9816001600160a01b03166014611008565b610eb4836020611008565b604051602001610ec5929190611491565b60408051601f198184030181529082905262461bcd60e51b825261050991600401611592565b6000828152602081815260408083206001600160a01b038516845290915290205460ff16610984576000828152602081815260408083206001600160a01b03851684529091529020805460ff19166001179055610f453390565b6001600160a01b0316816001600160a01b0316837f2f8788117e7eff1d82e926ec794901d17c78024a50270940304540a733656f0d60405160405180910390a45050565b6000828152602081815260408083206001600160a01b038516845290915290205460ff1615610984576000828152602081815260408083206001600160a01b0385168085529252808320805460ff1916905551339285917ff6391f5c32d9c69d2a47ea670b442974b53935d1edc7fd64eb21e047a839171b9190a45050565b606060006110178360026115f6565b6110229060026115de565b67ffffffffffffffff81111561104857634e487b7160e01b600052604160045260246000fd5b6040519080825280601f01601f191660200182016040528015611072576020820181803683370190505b509050600360fc1b8160008151811061109b57634e487b7160e01b600052603260045260246000fd5b60200101906001600160f81b031916908160001a905350600f60fb1b816001815181106110d857634e487b7160e01b600052603260045260246000fd5b60200101906001600160f81b031916908160001a90535060006110fc8460026115f6565b6111079060016115de565b90505b60018111156111a8577f303132333435363738396162636465660000000000000000000000000000000085600f166010811061115657634e487b7160e01b600052603260045260246000fd5b1a60f81b82828151811061117a57634e487b7160e01b600052603260045260246000fd5b60200101906001600160f81b031916908160001a90535060049490941c936111a181611645565b905061110a565b5083156111f75760405162461bcd60e51b815260206004820181905260248201527f537472696e67733a20686578206c656e67746820696e73756666696369656e746044820152606401610509565b9392505050565b60008083601f84011261120f578081fd5b50813567ffffffffffffffff811115611226578182fd5b6020830191508360208260051b850101111561124157600080fd5b9250929050565b600060208284031215611259578081fd5b81516111f7816116a3565b600060208284031215611275578081fd5b815180151581146111f7578182fd5b600060208284031215611295578081fd5b5035919050565b600080604083850312156112ae578081fd5b8235915060208301356112c0816116a3565b809150509250929050565b6000602082840312156112dc578081fd5b81356001600160e01b0319811681146111f7578182fd5b60008060008060008060006080888a03121561130d578283fd5b873567ffffffffffffffff80821115611324578485fd5b818a0191508a601f830112611337578485fd5b8135818111156113495761134961168d565b604051601f8201601f19908116603f011681019083821181831017156113715761137161168d565b816040528281528d6020848701011115611389578788fd5b826020860160208301378760208483010152809b5050505060208a01359150808211156113b4578485fd5b6113c08b838c016111fe565b909850965060408a01359150808211156113d8578485fd5b6113e48b838c016111fe565b909650945060608a01359150808211156113fc578384fd5b506114098a828b016111fe565b989b979a50959850939692959293505050565b60006020828403121561142d578081fd5b5051919050565b60008060008060808587031215611449578384fd5b5050823594602084013594506040840135936060013592509050565b6000815180845261147d816020860160208601611615565b601f01601f19169290920160200192915050565b7f416363657373436f6e74726f6c3a206163636f756e74200000000000000000008152600083516114c9816017850160208801611615565b7f206973206d697373696e6720726f6c65200000000000000000000000000000006017918401918201528351611506816028840160208801611615565b01602801949350505050565b6001600160a01b03831681526040602082015260006115346040830184611465565b949350505050565b6001600160a01b038416815260e08101611584602083018580518252602081015160208301526040810151604083015260608101516060830152608081015160808301525050565b8260c0830152949350505050565b6020815260006111f76020830184611465565b60a08101610430828480518252602081015160208301526040810151604083015260608101516060830152608081015160808301525050565b600082198211156115f1576115f1611677565b500190565b600081600019048311821515161561161057611610611677565b500290565b60005b83811015611630578181015183820152602001611618565b8381111561163f576000848401525b50505050565b60008161165457611654611677565b506000190190565b600060001982141561167057611670611677565b5060010190565b634e487b7160e01b600052601160045260246000fd5b634e487b7160e01b600052604160045260246000fd5b6001600160a01b03811681146116b857600080fd5b5056fea2646970667358221220366721c37e51031dcdb764fbb9948f1eea26dde6a254b01e99cbbcfa07b39c2764736f6c63430008040033",
  "immutableReferences": {},
  "source": "// SPDX-License-Identifier: MIT\npragma solidity ^0.8.0;\n\nimport \"@openzeppelin/contracts/security/ReentrancyGuard.sol\";\nimport \"@openzeppelin/contracts/access/AccessControl.sol\";\nimport \"./EthunesSongs.sol\";\nimport \"./EthunesAccessControl.sol\";\nimport \"./EthunesLicenses.sol\";\n\ncontract EthunesMarketplace is AccessControl, ReentrancyGuard {\n    event EthunesLicensePurchased(\n        uint256 indexed licenseId,\n        address indexed publisher,\n        address indexed holder,\n        uint256 price\n    );\n\n    event EthunesLicenseAdded(\n        uint256 indexed LicenseId,\n        // uint256 indexed songId,\n        address indexed publisher,\n        uint256 price\n    );\n\n    event EthunesSongPublished(\n        uint256 indexed songId,\n        address indexed publisher,\n        string uri\n    );\n\n    uint256 public constant ONE_HUNDRED_PERCENTAGE = 10000;\n    // 5.00%\n    uint256 public publisherRoyaltyPercentage = 500;\n\n    struct LicenseListing {\n        address payable originalPublisher;\n        uint256 price;\n    }\n\n    // LicenseId => LicenseListing\n    mapping(uint256 => LicenseListing) public licenseListings;\n\n    // songId => songCreator\n    mapping(uint256 => address) public songCreators;\n\n    address payable platform;\n\n    EthunesAccessControl public ethunesAccessControl;\n    EthunesSongs public ethunesSongs;\n    EthunesLicenses public ethunesLicenses;\n\n    constructor(\n        EthunesAccessControl _ethunesAccessControl,\n        EthunesSongs _ethunesSongs,\n        EthunesLicenses _ethunesLicenses,\n        address payable _platform\n    ) {\n        ethunesAccessControl = _ethunesAccessControl;\n        ethunesSongs = _ethunesSongs;\n        ethunesLicenses = _ethunesLicenses;\n        platform = _platform;\n    }\n\n    /**\n     * @dev publishes songs and licesnse\n     */\n    // TODO: TOTAL SUPPLY\n    function publishSongAndLicense(\n        string memory _songURI,\n        uint256[] calldata _licenseCategories,\n        uint256[] calldata _licensePurposes,\n        uint256[] calldata _prices\n    ) external {\n        require(\n            _licenseCategories.length == _licensePurposes.length &&\n                _licenseCategories.length == _prices.length,\n            \"mistmatching input length.\"\n        );\n\n        uint256 songId = ethunesSongs.mint(_msgSender(), _songURI);\n\n        for (uint256 i = 0; i < _licenseCategories.length; i++) {\n            listNewLicense(\n                songId,\n                _licenseCategories[i],\n                _licensePurposes[i],\n                _prices[i]\n            );\n        }\n        emit EthunesSongPublished(songId, _msgSender(), _songURI);\n    }\n\n    function listNewLicense(\n        uint256 _songId,\n        uint256 _licenseCategory,\n        uint256 _licensePurpose,\n        uint256 _price\n    ) public {\n        require(ethunesSongs.ownerOf(_songId) == _msgSender(), \"wrong owner\");\n        //TODO\n        // check category\n        EthunesLicenses.License memory license =\n            EthunesLicenses.License({\n                songId: _songId,\n                categoryId: _licenseCategory,\n                purposeId: _licensePurpose,\n                totalSupply: 0,\n                availableSupply: 0\n            });\n\n        licenseListings[ethunesLicenses.encode(license)] = LicenseListing({\n            originalPublisher: payable(_msgSender()),\n            price: _price\n        });\n\n        emit EthunesLicenseAdded(\n            ethunesLicenses.encode(license),\n            _msgSender(),\n            _price\n        );\n    }\n\n    function purchaseLicense(\n        uint256 _songId,\n        uint256 _licenseCategory,\n        uint256 _licensePurpose,\n        uint256 _quantity\n    ) external payable {\n        require(ethunesSongs._exists(_songId), \"song not exists\");\n        EthunesLicenses.License memory license =\n            EthunesLicenses.License({\n                songId: _songId,\n                categoryId: _licenseCategory,\n                purposeId: _licensePurpose,\n                totalSupply: 0,\n                availableSupply: 0\n            });\n        uint256 licenseId = ethunesLicenses.encode(license);\n\n        LicenseListing storage listing = licenseListings[licenseId];\n        address songOwner = ethunesSongs.ownerOf(_songId);\n        require(\n            listing.originalPublisher == songOwner && listing.originalPublisher != address(0) ,\n            \"owner of song changed\"\n        );\n\n        require(_quantity > 0, \"invalid quantity.\");\n        // If license has price\n        if (listing.price > 0) {\n            require(msg.value == listing.price, \"value not matching price\");\n            (bool hasPaid, ) =\n            payable(songOwner).call{value: msg.value}(\"\");\n            require(hasPaid, \"failed to pay songOwner\");\n        }\n\n        ethunesLicenses.mint(_msgSender(), license, _quantity);\n\n\n        emit EthunesLicensePurchased(\n            licenseId,\n            songOwner,\n            _msgSender(),\n            msg.value\n        );\n    }\n}\n",
  "sourcePath": "/Users/mehradkavian/Dropbox/ethunes/ethunes-contracts/contracts/EthunesMarketplace.sol",
  "compiler": {
    "name": "solc",
    "version": "0.8.4+commit.c7e474f2.Emscripten.clang"
  },
  "schemaVersion": "3.3.4",
  "updatedAt": "2021-05-30T14:02:45.738Z",
  "networkType": "ethereum",
  "devdoc": {
    "kind": "dev",
    "methods": {
      "getRoleAdmin(bytes32)": {
        "details": "Returns the admin role that controls `role`. See {grantRole} and {revokeRole}. To change a role's admin, use {_setRoleAdmin}."
      },
      "grantRole(bytes32,address)": {
        "details": "Grants `role` to `account`. If `account` had not been already granted `role`, emits a {RoleGranted} event. Requirements: - the caller must have ``role``'s admin role."
      },
      "hasRole(bytes32,address)": {
        "details": "Returns `true` if `account` has been granted `role`."
      },
      "publishSongAndLicense(string,uint256[],uint256[],uint256[])": {
        "details": "publishes songs and licesnse"
      },
      "renounceRole(bytes32,address)": {
        "details": "Revokes `role` from the calling account. Roles are often managed via {grantRole} and {revokeRole}: this function's purpose is to provide a mechanism for accounts to lose their privileges if they are compromised (such as when a trusted device is misplaced). If the calling account had been granted `role`, emits a {RoleRevoked} event. Requirements: - the caller must be `account`."
      },
      "revokeRole(bytes32,address)": {
        "details": "Revokes `role` from `account`. If `account` had been granted `role`, emits a {RoleRevoked} event. Requirements: - the caller must have ``role``'s admin role."
      },
      "supportsInterface(bytes4)": {
        "details": "See {IERC165-supportsInterface}."
      }
    },
    "version": 1
  },
  "userdoc": {
    "kind": "user",
    "methods": {},
    "version": 1
  }
}