{
  "contractName": "EthunesAccessControl",
  "abi": [
    {
      "inputs": [],
      "stateMutability": "nonpayable",
      "type": "constructor"
    },
    {
      "anonymous": false,
      "inputs": [
        {
          "indexed": true,
          "internalType": "address",
          "name": "admin",
          "type": "address"
        }
      ],
      "name": "AdminRemoved",
      "type": "event"
    },
    {
      "anonymous": false,
      "inputs": [
        {
          "indexed": true,
          "internalType": "address",
          "name": "admin",
          "type": "address"
        }
      ],
      "name": "Contract",
      "type": "event"
    },
    {
      "anonymous": false,
      "inputs": [
        {
          "indexed": true,
          "internalType": "address",
          "name": "admin",
          "type": "address"
        }
      ],
      "name": "NewAdminAdded",
      "type": "event"
    },
    {
      "anonymous": false,
      "inputs": [
        {
          "indexed": true,
          "internalType": "bytes32",
          "name": "role",
          "type": "bytes32"
        },
        {
          "indexed": true,
          "internalType": "bytes32",
          "name": "previousAdminRole",
          "type": "bytes32"
        },
        {
          "indexed": true,
          "internalType": "bytes32",
          "name": "newAdminRole",
          "type": "bytes32"
        }
      ],
      "name": "RoleAdminChanged",
      "type": "event"
    },
    {
      "anonymous": false,
      "inputs": [
        {
          "indexed": true,
          "internalType": "bytes32",
          "name": "role",
          "type": "bytes32"
        },
        {
          "indexed": true,
          "internalType": "address",
          "name": "account",
          "type": "address"
        },
        {
          "indexed": true,
          "internalType": "address",
          "name": "sender",
          "type": "address"
        }
      ],
      "name": "RoleGranted",
      "type": "event"
    },
    {
      "anonymous": false,
      "inputs": [
        {
          "indexed": true,
          "internalType": "bytes32",
          "name": "role",
          "type": "bytes32"
        },
        {
          "indexed": true,
          "internalType": "address",
          "name": "account",
          "type": "address"
        },
        {
          "indexed": true,
          "internalType": "address",
          "name": "sender",
          "type": "address"
        }
      ],
      "name": "RoleRevoked",
      "type": "event"
    },
    {
      "inputs": [],
      "name": "CONTRACT_WHITELIST_ROLE",
      "outputs": [
        {
          "internalType": "bytes32",
          "name": "",
          "type": "bytes32"
        }
      ],
      "stateMutability": "view",
      "type": "function",
      "constant": true
    },
    {
      "inputs": [],
      "name": "DEFAULT_ADMIN_ROLE",
      "outputs": [
        {
          "internalType": "bytes32",
          "name": "",
          "type": "bytes32"
        }
      ],
      "stateMutability": "view",
      "type": "function",
      "constant": true
    },
    {
      "inputs": [
        {
          "internalType": "bytes32",
          "name": "role",
          "type": "bytes32"
        }
      ],
      "name": "getRoleAdmin",
      "outputs": [
        {
          "internalType": "bytes32",
          "name": "",
          "type": "bytes32"
        }
      ],
      "stateMutability": "view",
      "type": "function",
      "constant": true
    },
    {
      "inputs": [
        {
          "internalType": "bytes32",
          "name": "role",
          "type": "bytes32"
        },
        {
          "internalType": "address",
          "name": "account",
          "type": "address"
        }
      ],
      "name": "grantRole",
      "outputs": [],
      "stateMutability": "nonpayable",
      "type": "function"
    },
    {
      "inputs": [
        {
          "internalType": "bytes32",
          "name": "role",
          "type": "bytes32"
        },
        {
          "internalType": "address",
          "name": "account",
          "type": "address"
        }
      ],
      "name": "hasRole",
      "outputs": [
        {
          "internalType": "bool",
          "name": "",
          "type": "bool"
        }
      ],
      "stateMutability": "view",
      "type": "function",
      "constant": true
    },
    {
      "inputs": [
        {
          "internalType": "bytes32",
          "name": "role",
          "type": "bytes32"
        },
        {
          "internalType": "address",
          "name": "account",
          "type": "address"
        }
      ],
      "name": "renounceRole",
      "outputs": [],
      "stateMutability": "nonpayable",
      "type": "function"
    },
    {
      "inputs": [
        {
          "internalType": "bytes32",
          "name": "role",
          "type": "bytes32"
        },
        {
          "internalType": "address",
          "name": "account",
          "type": "address"
        }
      ],
      "name": "revokeRole",
      "outputs": [],
      "stateMutability": "nonpayable",
      "type": "function"
    },
    {
      "inputs": [
        {
          "internalType": "bytes4",
          "name": "interfaceId",
          "type": "bytes4"
        }
      ],
      "name": "supportsInterface",
      "outputs": [
        {
          "internalType": "bool",
          "name": "",
          "type": "bool"
        }
      ],
      "stateMutability": "view",
      "type": "function",
      "constant": true
    },
    {
      "inputs": [
        {
          "internalType": "address",
          "name": "_address",
          "type": "address"
        }
      ],
      "name": "hasAdminRole",
      "outputs": [
        {
          "internalType": "bool",
          "name": "",
          "type": "bool"
        }
      ],
      "stateMutability": "view",
      "type": "function",
      "constant": true
    },
    {
      "inputs": [
        {
          "internalType": "address",
          "name": "_address",
          "type": "address"
        }
      ],
      "name": "addContractWhitelistRole",
      "outputs": [],
      "stateMutability": "nonpayable",
      "type": "function"
    },
    {
      "inputs": [
        {
          "internalType": "address",
          "name": "_address",
          "type": "address"
        }
      ],
      "name": "removeContractWhitelistRole",
      "outputs": [],
      "stateMutability": "nonpayable",
      "type": "function"
    },
    {
      "inputs": [
        {
          "internalType": "address",
          "name": "_address",
          "type": "address"
        }
      ],
      "name": "hasContractWhitelistRole",
      "outputs": [
        {
          "internalType": "bool",
          "name": "",
          "type": "bool"
        }
      ],
      "stateMutability": "view",
      "type": "function",
      "constant": true
    },
    {
      "inputs": [
        {
          "internalType": "address",
          "name": "_address",
          "type": "address"
        }
      ],
      "name": "addAdminRole",
      "outputs": [],
      "stateMutability": "nonpayable",
      "type": "function"
    },
    {
      "inputs": [
        {
          "internalType": "address",
          "name": "_address",
          "type": "address"
        }
      ],
      "name": "removeAdminRole",
      "outputs": [],
      "stateMutability": "nonpayable",
      "type": "function"
    }
  ],
  "bytecode": "0x608060405234801561001057600080fd5b5061001c600033610021565b6100cd565b61002b828261002f565b5050565b6000828152602081815260408083206001600160a01b038516845290915290205460ff1661002b576000828152602081815260408083206001600160a01b03851684529091529020805460ff191660011790556100893390565b6001600160a01b0316816001600160a01b0316837f2f8788117e7eff1d82e926ec794901d17c78024a50270940304540a733656f0d60405160405180910390a45050565b610d50806100dc6000396000f3fe608060405234801561001057600080fd5b50600436106100ea5760003560e01c80639a857e841161008c578063c395fcb311610066578063c395fcb31461020f578063d19967ce14610222578063d547741f14610235578063dccfe3101461024857600080fd5b80639a857e84146101cd578063a217fddf146101e0578063b9742008146101e857600080fd5b80632f2ff15d116100c85780632f2ff15d1461015b57806336568abe146101705780636595171c1461018357806391d148541461019657600080fd5b806301ffc9a7146100ef578063134c1d8314610117578063248a9ca31461012a575b600080fd5b6101026100fd366004610baa565b61025b565b60405190151581526020015b60405180910390f35b610102610125366004610b4d565b6102c4565b61014d610138366004610b67565b60009081526020819052604090206001015490565b60405190815260200161010e565b61016e610169366004610b7f565b610304565b005b61016e61017e366004610b7f565b61032f565b61016e610191366004610b4d565b6103c0565b6101026101a4366004610b7f565b6000918252602082815260408084206001600160a01b0393909316845291905290205460ff1690565b61016e6101db366004610b4d565b61046d565b61014d600081565b61014d7ff67c6ebf0508914d4548d84da9773085a967e1f26bc42c5e2d4467f693bca81381565b61010261021d366004610b4d565b610581565b61016e610230366004610b4d565b6105c1565b61016e610243366004610b7f565b6106cd565b61016e610256366004610b4d565b6106f3565b60006001600160e01b031982167f7965db0b0000000000000000000000000000000000000000000000000000000014806102be57507f01ffc9a7000000000000000000000000000000000000000000000000000000006001600160e01b03198316145b92915050565b6001600160a01b03811660009081527f8a0c3b6ce27cd6f0162ae47b8b8132b17f01fd673e14c3e2330a6c49afbd7ff6602052604081205460ff166102be565b60008281526020819052604090206001015461032081336107a0565b61032a838361081e565b505050565b6001600160a01b03811633146103b25760405162461bcd60e51b815260206004820152602f60248201527f416363657373436f6e74726f6c3a2063616e206f6e6c792072656e6f756e636560448201527f20726f6c657320666f722073656c66000000000000000000000000000000000060648201526084015b60405180910390fd5b6103bc82826108bc565b5050565b6103cb6000336101a4565b61042b5760405162461bcd60e51b815260206004820152602b60248201527f457468756e6573416363657373436f6e74726f6c3a2043616c6c6572206d757360448201526a3a1031329030b236b4b71760a91b60648201526084016103a9565b610436600082610304565b6040516001600160a01b038216907f2dbe9fb88463d989acccabbb6ee06901f83672eb78e04a11ff48dd8f69a27cda90600090a250565b6104786000336101a4565b6104d85760405162461bcd60e51b815260206004820152602b60248201527f457468756e6573416363657373436f6e74726f6c3a2043616c6c6572206d757360448201526a3a1031329030b236b4b71760a91b60648201526084016103a9565b6104e1816102c4565b156105545760405162461bcd60e51b815260206004820152603860248201527f457468756e6573416363657373436f6e74726f6c3a204164647265737320686160448201527f7320636f6e747261637457686974656c69737420726f6c65000000000000000060648201526084016103a9565b61057e7ff67c6ebf0508914d4548d84da9773085a967e1f26bc42c5e2d4467f693bca81382610304565b50565b6001600160a01b03811660009081527fad3228b676f7d3cd4284a5443f17f1962b36e491b30a40b2405849e597ba5fb5602052604081205460ff166102be565b6105cc6000336101a4565b61062c5760405162461bcd60e51b815260206004820152602b60248201527f457468756e6573416363657373436f6e74726f6c3a2043616c6c6572206d757360448201526a3a1031329030b236b4b71760a91b60648201526084016103a9565b610635816102c4565b6106a75760405162461bcd60e51b815260206004820152603e60248201527f457468756e6573416363657373436f6e74726f6c3a2041646472657373206d7560448201527f7374206861766520636f6e747261637457686974656c69737420726f6c65000060648201526084016103a9565b61057e7ff67c6ebf0508914d4548d84da9773085a967e1f26bc42c5e2d4467f693bca813825b6000828152602081905260409020600101546106e981336107a0565b61032a83836108bc565b6106fe6000336101a4565b61075e5760405162461bcd60e51b815260206004820152602b60248201527f457468756e6573416363657373436f6e74726f6c3a2043616c6c6572206d757360448201526a3a1031329030b236b4b71760a91b60648201526084016103a9565b6107696000826106cd565b6040516001600160a01b038216907fa3b62bc36326052d97ea62d63c3d60308ed4c3ea8ac079dd8499f1e9c4f80c0f90600090a250565b6000828152602081815260408083206001600160a01b038516845290915290205460ff166103bc576107dc816001600160a01b0316601461093b565b6107e783602061093b565b6040516020016107f8929190610bd2565b60408051601f198184030181529082905262461bcd60e51b82526103a991600401610c53565b6000828152602081815260408083206001600160a01b038516845290915290205460ff166103bc576000828152602081815260408083206001600160a01b03851684529091529020805460ff191660011790556108783390565b6001600160a01b0316816001600160a01b0316837f2f8788117e7eff1d82e926ec794901d17c78024a50270940304540a733656f0d60405160405180910390a45050565b6000828152602081815260408083206001600160a01b038516845290915290205460ff16156103bc576000828152602081815260408083206001600160a01b0385168085529252808320805460ff1916905551339285917ff6391f5c32d9c69d2a47ea670b442974b53935d1edc7fd64eb21e047a839171b9190a45050565b6060600061094a836002610c9e565b610955906002610c86565b67ffffffffffffffff81111561097b57634e487b7160e01b600052604160045260246000fd5b6040519080825280601f01601f1916602001820160405280156109a5576020820181803683370190505b509050600360fc1b816000815181106109ce57634e487b7160e01b600052603260045260246000fd5b60200101906001600160f81b031916908160001a905350600f60fb1b81600181518110610a0b57634e487b7160e01b600052603260045260246000fd5b60200101906001600160f81b031916908160001a9053506000610a2f846002610c9e565b610a3a906001610c86565b90505b6001811115610adb577f303132333435363738396162636465660000000000000000000000000000000085600f1660108110610a8957634e487b7160e01b600052603260045260246000fd5b1a60f81b828281518110610aad57634e487b7160e01b600052603260045260246000fd5b60200101906001600160f81b031916908160001a90535060049490941c93610ad481610ced565b9050610a3d565b508315610b2a5760405162461bcd60e51b815260206004820181905260248201527f537472696e67733a20686578206c656e67746820696e73756666696369656e7460448201526064016103a9565b9392505050565b80356001600160a01b0381168114610b4857600080fd5b919050565b600060208284031215610b5e578081fd5b610b2a82610b31565b600060208284031215610b78578081fd5b5035919050565b60008060408385031215610b91578081fd5b82359150610ba160208401610b31565b90509250929050565b600060208284031215610bbb578081fd5b81356001600160e01b031981168114610b2a578182fd5b7f416363657373436f6e74726f6c3a206163636f756e7420000000000000000000815260008351610c0a816017850160208801610cbd565b7f206973206d697373696e6720726f6c65200000000000000000000000000000006017918401918201528351610c47816028840160208801610cbd565b01602801949350505050565b6020815260008251806020840152610c72816040850160208701610cbd565b601f01601f19169190910160400192915050565b60008219821115610c9957610c99610d04565b500190565b6000816000190483118215151615610cb857610cb8610d04565b500290565b60005b83811015610cd8578181015183820152602001610cc0565b83811115610ce7576000848401525b50505050565b600081610cfc57610cfc610d04565b506000190190565b634e487b7160e01b600052601160045260246000fdfea2646970667358221220c24fd2b022f302d6e1c05068ffd100d9348cb85dfe24de45b4397accc3b72abf64736f6c63430008040033",
  "immutableReferences": {},
  "source": "// SPDX-License-Identifier: MIT\npragma solidity ^0.8.0;\n\nimport \"@openzeppelin/contracts/access/AccessControl.sol\";\n\ncontract EthunesAccessControl is AccessControl {\n \n\n    event NewAdminAdded(address indexed admin);\n\n    event AdminRemoved(address indexed admin);\n\n    event Contract(address indexed admin);\n\n    bytes32 public constant CONTRACT_WHITELIST_ROLE = keccak256(\n        \"CONTRACT_WHITELIST_ROLE\"\n    );\n\n    constructor() {\n        _setupRole(DEFAULT_ADMIN_ROLE, _msgSender());\n    }\n\n    function hasAdminRole(address _address) external view returns (bool) {\n        return hasRole(DEFAULT_ADMIN_ROLE, _address);\n    }\n\n    function addContractWhitelistRole(address _address) public  {\n        require(hasRole(DEFAULT_ADMIN_ROLE, _msgSender()), \"EthunesAccessControl: Caller must be admin.\");\n        require(\n            !hasContractWhitelistRole(_address),\n            \"EthunesAccessControl: Address has contractWhitelist role\"\n        );\n        grantRole(CONTRACT_WHITELIST_ROLE, _address);\n    }\n\n    function removeContractWhitelistRole(address _address)\n        public\n        \n    {\n        require(hasRole(DEFAULT_ADMIN_ROLE, _msgSender()), \"EthunesAccessControl: Caller must be admin.\");\n        require(\n            hasContractWhitelistRole(_address),\n            \"EthunesAccessControl: Address must have contractWhitelist role\"\n        );\n        revokeRole(CONTRACT_WHITELIST_ROLE, _address);\n    }\n\n    function hasContractWhitelistRole(address _address)\n        public\n        view\n        returns (bool)\n    {\n        return hasRole(CONTRACT_WHITELIST_ROLE, _address);\n    }\n\n    /**\n     * @dev add admin role\n     */\n    function addAdminRole(address _address) external {\n        require(hasRole(DEFAULT_ADMIN_ROLE, _msgSender()), \"EthunesAccessControl: Caller must be admin.\");\n        grantRole(DEFAULT_ADMIN_ROLE, _address);\n        emit NewAdminAdded(_address);\n    }\n\n    /**\n     * @dev remove admin role\n     */\n    function removeAdminRole(address _address) external {\n        require(hasRole(DEFAULT_ADMIN_ROLE, _msgSender()), \"EthunesAccessControl: Caller must be admin.\");\n        revokeRole(DEFAULT_ADMIN_ROLE, _address);\n        emit AdminRemoved(_address);\n    }\n}\n",
  "sourcePath": "/Users/mehradkavian/Dropbox/ethunes/ethunes-contracts/contracts/EthunesAccessControl.sol",
  "compiler": {
    "name": "solc",
    "version": "0.8.4+commit.c7e474f2.Emscripten.clang"
  },
  "schemaVersion": "3.3.4",
  "updatedAt": "2021-05-29T20:03:34.338Z",
  "networkType": "ethereum",
  "devdoc": {
    "kind": "dev",
    "methods": {
      "addAdminRole(address)": {
        "details": "add admin role"
      },
      "getRoleAdmin(bytes32)": {
        "details": "Returns the admin role that controls `role`. See {grantRole} and {revokeRole}. To change a role's admin, use {_setRoleAdmin}."
      },
      "grantRole(bytes32,address)": {
        "details": "Grants `role` to `account`. If `account` had not been already granted `role`, emits a {RoleGranted} event. Requirements: - the caller must have ``role``'s admin role."
      },
      "hasRole(bytes32,address)": {
        "details": "Returns `true` if `account` has been granted `role`."
      },
      "removeAdminRole(address)": {
        "details": "remove admin role"
      },
      "renounceRole(bytes32,address)": {
        "details": "Revokes `role` from the calling account. Roles are often managed via {grantRole} and {revokeRole}: this function's purpose is to provide a mechanism for accounts to lose their privileges if they are compromised (such as when a trusted device is misplaced). If the calling account had been granted `role`, emits a {RoleRevoked} event. Requirements: - the caller must be `account`."
      },
      "revokeRole(bytes32,address)": {
        "details": "Revokes `role` from `account`. If `account` had been granted `role`, emits a {RoleRevoked} event. Requirements: - the caller must have ``role``'s admin role."
      },
      "supportsInterface(bytes4)": {
        "details": "See {IERC165-supportsInterface}."
      }
    },
    "version": 1
  },
  "userdoc": {
    "kind": "user",
    "methods": {},
    "version": 1
  }
}